:1000000035C04FC04EC04DC0F4C04BC04AC049C0FF
:1000100048C047C046C045C044C043C042C041C0BC
:1000200040C03FC03EC00E11151515110E040C0442
:100030000404041F0E11020408101F0E1101060112
:10004000110E1111111F0101011F10101E01110EBF
:100050000608101E11110E1F1101020404040E11D6
:10006000110E11110E0E11110F01020C11241FBEE1
:10007000CFE5D4E0DEBFCDBF10E0A0E6B0E0E6E41F
:10008000F5E002C005900D92AA36B107D9F710E04D
:10009000AAE6B0E001C01D92A23BB107E1F77BD117
:1000A00050C2AECFFF920F931F93F82E00E00AC00C
:1000B000812F602F4F2DA8D11F5F1032C9F70F5F1E
:1000C000083011F010E0F4CFFF2011F0AA9A01C01F
:1000D000AA981F910F91FF900895A1E0B0E0E2E788
:1000E000F0E002C2E82E87E0689F6001112486E2FA
:1000F00090E0C80ED91E90E0F601F49010E000E107
:10010000402F4F21812F8E0D692F99837DD1069528
:100110001F5F99811530A1F79F5F0894C11CD11C06
:10012000973051F72196E8E0FBC1809170009091E3
:100130007100892B21F410926B0081E0B3DF809174
:1001400070009091710068E572E0B0D160936F002B
:1001500082E0C3DF80917000909171006CE370E0E9
:10016000A5D1CB016AE070E0A1D1682F80936F0028
:1001700089E0B3DF80917000909171006CE370E0D2
:1001800095D16AE070E092D160936F0084E1A5DFC1
:1001900080917000909171006AE070E087D1682FC3
:1001A00080936F008BE199DF08951F93182F81E1F1
:1001B00061E0412F29D180E161E0412F25D181E12A
:1001C00062E0412F21D180E162E0412F1DD181E128
:1001D00064E0412F19D180E164E0412F15D181E124
:1001E00065E0412F11D180E165E0412F0DD11F91D4
:1001F00008951F920F920FB60F9211242F933F93E1
:100200004F935F936F937F938F939F93AF93BF931E
:10021000EF93FF9380916A008F5F80936A00843030
:1002200090F080916B00813061F48091700090912A
:1002300071000197909371008093700076DF81E0E8
:10024000B4DF10926A0080916A00823031F48091AC
:100250006B00813011F480E0A8DF80916C0088236E
:1002600029F080916C00815080936C00FF91EF9198
:10027000BF91AF919F918F917F916F915F914F91BE
:100280003F912F910F900FBE0F901F90189590B334
:100290009095907E80916E00981731F082E0809367
:1002A0006C0090936E00089580916C00882309F093
:1002B00052C080916D00882331F0992309F04BC022
:1002C00010926D000895992309F445C021E0209310
:1002D0006D0097FF2EC080916B00882339F58091C7
:1002E0007000909171002091600030916100821740
:1002F000930739F0309371002093700080E0D2DED4
:1003000014C023E08438920719F48CE291E005C010
:100310008C52914059F484E893E09093610080936B
:1003200060009093710080937000FFDE81E03DDFFC
:10033000089596FF08C080916B00813061F410929F
:100340006B00F3DE089595FF06C080916B00882353
:1003500011F420936B0008958DD03DD082B5886054
:1003600082BD83E085BD89B7806489BF789481B3FD
:100370008F7181BB82B3806E82BBA29AAA98809152
:100380006000909161009093710080937000CDDEC9
:1003900081E00BDF0895E0DF7ADFFECF482F262FC4
:1003A000332727FD30952150304081E090E002C096
:1003B000880F991F2A95E2F7982F0AC0C498892FB1
:1003C000842311F0C59A01C0C598C49A96956150CE
:1003D0001616A4F30895CF93DF93C39885E063E0E6
:1003E000DDDF80E067E0DADFC0E0D0E0FE01EE585C
:1003F000FF4F808164E0D2DF2196C034D105B1F790
:10040000C39ADF91CF9108951F93942FE82FF0E0C6
:10041000AF01409550954370507021E030E002C02C
:10042000220F331F4A95E2F7182F187F160F110F6E
:1004300082FD1F5FE12FF0E0992329F0EE58FF4F76
:100440008081822B05C0EE58FF4F8081209582234A
:100450008083C39885E063E0A1DF812F67E09EDFA2
:10046000E12FF0E0EE58FF4F808164E097DFC39A00
:100470001F910895CF93DF93BB9ABC9ABD9AC39AFC
:10048000C49AC59AC39884E063E088DFC2E6D0E0EE
:10049000899168E083DF80E061E080DF80E0C93639
:1004A000D807B1F7C39ADF91CF910895AA1BBB1B60
:1004B00051E107C0AA1FBB1FA617B70710F0A61B64
:1004C000B70B881F991F5A95A9F780959095BC0185
:1004D000CD0108952F923F924F925F926F927F923B
:1004E0008F929F92AF92BF92CF92DF92EF92FF9244
:1004F0000F931F93CF93DF93CDB7DEB7CA1BDB0BF0
:100500000FB6F894DEBF0FBECDBF09942A88398894
:1005100048885F846E847D848C849B84AA84B9849B
:10052000C884DF80EE80FD800C811B81AA81B981A7
:10053000CE0FD11D0FB6F894DEBF0FBECDBFED01BB
:060540000895F894FFCFBE
:0A0546002C010020180103A3080097
:00000001FF
